S01700004763634170706C69636174696F6E352E7372656357
S11300000C9434000C943E000C943E000C943E007E
S11300100C943E000C943E000C943E000C943E0064
S11300200C943E000C943E000C943E000C943E0054
S11300300C943E000C943E000C943E000C943E0044
S11300400C943E000C943E000C943E000C943E0034
S11300500C943E000C943E000C943E000C943E0024
S11300600C943E000C943E0011241FBECFEFD8E048
S1130070DEBFCDBF0E9452000C946A000C940000B5
S113008080E02E988EBD0DB407FEFDCF8EB52E9A5E
S1130090EFE4F3EC3197F1F700C000008F5F8F3F7E
S11300A081F708958CB580648CBD8CB58CBD8CB5FE
S11300B08F7D8CBD8CB580618CBD8CB588608CBD0A
S11300C08CB584608CBD84B18C6684B92B9A0E94F3
S10B00D04000FDCFF894FFCFBE
S9030000FC
