S01700004763634170706C69636174696F6E322E737265635A
S11300000C9434000C943E000C943E000C943E007E
S11300100C943E000C943E000C943E000C943E0064
S11300200C943E000C943E000C943E000C943E0054
S11300300C943E000C943E000C943E000C943E0044
S11300400C943E000C943E000C943E000C943E0034
S11300500C943E000C943E000C943E000C943E0024
S11300600C943E000C943E0011241FBECFEFD8E048
S1130070DEBFCDBF0E944E000C9451000C940000D2
S1130080569A559A84B5806884BD84B5836084BDCE
S113009085B5816085BD88EC87BD08950E944000C8
S10900A0FFCFF894FFCF2E
S9030000FC
